:020000040000FA
:10000000000000EB240000EB2C008FE2000C90E8D5
:1000100000A08AE000B08BE001704AE20B005AE1D8
:100020000000001A1C0000EB0F00BAE818E04FE2D5
:10003000010013E303F0471013FF2FE1CC01000090
:10004000DC0100000030B0E30040B0E30050B0E35A
:100050000060B0E3102052E27800A128FCFFFF8A84
:10006000822EB0E13000A128003081451EFF2FE133
:1000700001C08FE21CFF2FE11FB5059886460FBC1B
:10008000009C02B07047000001C08FE21CFF2FE10E
:1000900030B47546AE4630BC70470000350000EB0A
:1000A0000210A0E1F1FFFFEB1CC09FE50FC08CE048
:1000B00001001CE30DE08F120FE0A0011CFF2FE1F7
:1000C00001C08FE21CFF2FE100F086F85000000015
:1000D0007847C04603002DE9EAFFFFEB0300BDE8C7
:1000E000420000EB0C009FE50C109FE504209FE50B
:1000F00008309FE51EFF2FE16000004060040040D3
:100100006000004060009FE5080090E5800080E30B
:1001100054109FE5080081E50100A0E1180090E57A
:100120000108C0E3180081E50E0000EA38009FE5F1
:10013000100090E5010810E30500001A28009FE573
:10014000040090E5800080E31C109FE5040081E539
:10015000040000EA10009FE50C0090E5800080E3B9
:1001600004109FE50C0081E5EFFFFFEA008002E04C
:1001700070477047704700000E50A0E1180000EB78
:1001800005E0A0E10050B0E10D10A0E10A30A0E1CF
:100190000700C0E300D0A0E160D08DE220402DE94F
:1001A000CFFFFFEB2040BDE80060A0E30070A0E3BC
:1001B0000080A0E300B0A0E30710C1E305C0A0E108
:1001C000C009ACE8C009ACE8C009ACE8C009ACE8BB
:1001D00001D0A0E11EFF2FE10400C046C046200070
:1001E000FFF776FF00009FE51EFF2FE100000040B3
:1001F00001C08FE21CFF2FE101491820ABDFFEE7B1
:10020000260002001EFF2FE118020000000000403F
:08021000E804000044000000B6
:0400000500000000F7
:00000001FF
